{
  "contractName": "MedRec",
  "abi": [
    {
      "inputs": [],
      "payable": false,
      "stateMutability": "nonpayable",
      "type": "constructor"
    },
    {
      "constant": true,
      "inputs": [
        {
          "internalType": "uint256",
          "name": "",
          "type": "uint256"
        }
      ],
      "name": "patientRecords",
      "outputs": [
        {
          "internalType": "uint256",
          "name": "mrn",
          "type": "uint256"
        },
        {
          "internalType": "string",
          "name": "diagnosis",
          "type": "string"
        },
        {
          "internalType": "string",
          "name": "medication",
          "type": "string"
        },
        {
          "internalType": "string",
          "name": "visitDate",
          "type": "string"
        }
      ],
      "payable": false,
      "stateMutability": "view",
      "type": "function"
    },
    {
      "constant": true,
      "inputs": [],
      "name": "recIndex",
      "outputs": [
        {
          "internalType": "uint256",
          "name": "",
          "type": "uint256"
        }
      ],
      "payable": false,
      "stateMutability": "view",
      "type": "function"
    },
    {
      "constant": false,
      "inputs": [
        {
          "internalType": "uint256",
          "name": "inputMRN",
          "type": "uint256"
        },
        {
          "internalType": "string",
          "name": "inputDiagnosis",
          "type": "string"
        },
        {
          "internalType": "string",
          "name": "inputMedication",
          "type": "string"
        },
        {
          "internalType": "string",
          "name": "inputVisitDate",
          "type": "string"
        }
      ],
      "name": "addRecord",
      "outputs": [],
      "payable": false,
      "stateMutability": "nonpayable",
      "type": "function"
    },
    {
      "constant": true,
      "inputs": [],
      "name": "getNumRecords",
      "outputs": [
        {
          "internalType": "uint256",
          "name": "",
          "type": "uint256"
        }
      ],
      "payable": false,
      "stateMutability": "view",
      "type": "function"
    },
    {
      "constant": true,
      "inputs": [
        {
          "internalType": "uint256",
          "name": "inputMRN",
          "type": "uint256"
        }
      ],
      "name": "getPatientRecord",
      "outputs": [
        {
          "internalType": "uint256",
          "name": "mrn",
          "type": "uint256"
        },
        {
          "internalType": "string",
          "name": "diag",
          "type": "string"
        },
        {
          "internalType": "string",
          "name": "medi",
          "type": "string"
        },
        {
          "internalType": "string",
          "name": "visit",
          "type": "string"
        }
      ],
      "payable": false,
      "stateMutability": "view",
      "type": "function"
    },
    {
      "constant": true,
      "inputs": [
        {
          "internalType": "uint256",
          "name": "inputMRN",
          "type": "uint256"
        }
      ],
      "name": "getPatientRecords",
      "outputs": [
        {
          "internalType": "uint256[]",
          "name": "",
          "type": "uint256[]"
        },
        {
          "internalType": "string[]",
          "name": "",
          "type": "string[]"
        },
        {
          "internalType": "string[]",
          "name": "",
          "type": "string[]"
        },
        {
          "internalType": "string[]",
          "name": "",
          "type": "string[]"
        }
      ],
      "payable": false,
      "stateMutability": "view",
      "type": "function"
    },
    {
      "constant": true,
      "inputs": [],
      "name": "getAllPatientRecords",
      "outputs": [
        {
          "internalType": "uint256[]",
          "name": "",
          "type": "uint256[]"
        },
        {
          "internalType": "string[]",
          "name": "",
          "type": "string[]"
        },
        {
          "internalType": "string[]",
          "name": "",
          "type": "string[]"
        },
        {
          "internalType": "string[]",
          "name": "",
          "type": "string[]"
        }
      ],
      "payable": false,
      "stateMutability": "view",
      "type": "function"
    }
  ],
  "bytecode": "0x608060405234801561001057600080fd5b5060006001819055506114a2806100286000396000f3fe608060405234801561001057600080fd5b506004361061007d5760003560e01c8063b9fff11b1161005b578063b9fff11b146100da578063d3d188a11461010d578063dce7e84314610140578063f6691616146101735761007d565b80631a08a3481461008257806361f609e11461009e5780638ba62017146100bc575b600080fd5b61009c60048036036100979190810190610f45565b610194565b005b6100a6610245565b6040516100b39190611219565b60405180910390f35b6100c461024b565b6040516100d19190611219565b60405180910390f35b6100f460048036036100ef9190810190610f1c565b610255565b6040516101049493929190611234565b60405180910390f35b61012760048036036101229190810190610f1c565b6104d6565b604051610137949392919061128e565b60405180910390f35b61015a60048036036101559190810190610f1c565b6106ce565b60405161016a94939291906111b8565b60405180910390f35b61017b610a9d565b60405161018b94939291906111b8565b60405180910390f35b8360008060015481526020019081526020016000206000018190555082600080600154815260200190815260200160002060010190805190602001906101db929190610e0e565b508160008060015481526020019081526020016000206002019080519060200190610207929190610e0e565b508060008060015481526020019081526020016000206003019080519060200190610233929190610e0e565b50600180540160018190555050505050565b60015481565b6000600154905090565b6000606080606060008090505b6001548110156104cd57600080828152602001908152602001600020600001548614156104c05760008082815260200190815260200160002060000154600080838152602001908152602001600020600101600080848152602001908152602001600020600201600080858152602001908152602001600020600301828054600181600116156101000203166002900480601f0160208091040260200160405190810160405280929190818152602001828054600181600116156101000203166002900480156103735780601f1061034857610100808354040283529160200191610373565b820191906000526020600020905b81548152906001019060200180831161035657829003601f168201915b50505050509250818054600181600116156101000203166002900480601f01602080910402602001604051908101604052809291908181526020018280546001816001161561010002031660029004801561040f5780601f106103e45761010080835404028352916020019161040f565b820191906000526020600020905b8154815290600101906020018083116103f257829003601f168201915b50505050509150808054600181600116156101000203166002900480601f0160208091040260200160405190810160405280929190818152602001828054600181600116156101000203166002900480156104ab5780601f10610480576101008083540402835291602001916104ab565b820191906000526020600020905b81548152906001019060200180831161048e57829003601f168201915b505050505090509450945094509450506104cf565b8080600101915050610262565b505b9193509193565b6000602052806000526040600020600091509050806000015490806001018054600181600116156101000203166002900480601f0160208091040260200160405190810160405280929190818152602001828054600181600116156101000203166002900480156105885780601f1061055d57610100808354040283529160200191610588565b820191906000526020600020905b81548152906001019060200180831161056b57829003601f168201915b505050505090806002018054600181600116156101000203166002900480601f0160208091040260200160405190810160405280929190818152602001828054600181600116156101000203166002900480156106265780601f106105fb57610100808354040283529160200191610626565b820191906000526020600020905b81548152906001019060200180831161060957829003601f168201915b505050505090806003018054600181600116156101000203166002900480601f0160208091040260200160405190810160405280929190818152602001828054600181600116156101000203166002900480156106c45780601f10610699576101008083540402835291602001916106c4565b820191906000526020600020905b8154815290600101906020018083116106a757829003601f168201915b5050505050905084565b606080606080600080905060008090505b60015481101561071c576000808281526020019081526020016000206000015487141561070f5781806001019250505b80806001019150506106df565b5060608160405190808252806020026020018201604052801561074e5781602001602082028038833980820191505090505b50905060608260405190808252806020026020018201604052801561078757816020015b60608152602001906001900390816107725790505b5090506060836040519080825280602002602001820160405280156107c057816020015b60608152602001906001900390816107ab5790505b5090506060846040519080825280602002602001820160405280156107f957816020015b60608152602001906001900390816107e45790505b509050600080905060008090505b600154811015610a83576000806000838152602001908152602001600020905080600001548d1415610a7557806000015487848151811061084457fe5b602002602001018181525050806001018054600181600116156101000203166002900480601f0160208091040260200160405190810160405280929190818152602001828054600181600116156101000203166002900480156108e85780601f106108bd576101008083540402835291602001916108e8565b820191906000526020600020905b8154815290600101906020018083116108cb57829003601f168201915b50505050508684815181106108f957fe5b6020026020010181905250806002018054600181600116156101000203166002900480601f01602080910402602001604051908101604052809291908181526020018280546001816001161561010002031660029004801561099c5780601f106109715761010080835404028352916020019161099c565b820191906000526020600020905b81548152906001019060200180831161097f57829003601f168201915b50505050508584815181106109ad57fe5b6020026020010181905250806003018054600181600116156101000203166002900480601f016020809104026020016040519081016040528092919081815260200182805460018160011615610100020316600290048015610a505780601f10610a2557610100808354040283529160200191610a50565b820191906000526020600020905b815481529060010190602001808311610a3357829003601f168201915b5050505050848481518110610a6157fe5b602002602001018190525082806001019350505b508080600101915050610807565b508484848499509950995099505050505050509193509193565b6060806060806060600154604051908082528060200260200182016040528015610ad65781602001602082028038833980820191505090505b5090506060600154604051908082528060200260200182016040528015610b1157816020015b6060815260200190600190039081610afc5790505b5090506060600154604051908082528060200260200182016040528015610b4c57816020015b6060815260200190600190039081610b375790505b5090506060600154604051908082528060200260200182016040528015610b8757816020015b6060815260200190600190039081610b725790505b50905060008090505b600154811015610df757600080600083815260200190815260200160002090508060000154868381518110610bc157fe5b602002602001018181525050806001018054600181600116156101000203166002900480601f016020809104026020016040519081016040528092919081815260200182805460018160011615610100020316600290048015610c655780601f10610c3a57610100808354040283529160200191610c65565b820191906000526020600020905b815481529060010190602001808311610c4857829003601f168201915b5050505050858381518110610c7657fe5b6020026020010181905250806002018054600181600116156101000203166002900480601f016020809104026020016040519081016040528092919081815260200182805460018160011615610100020316600290048015610d195780601f10610cee57610100808354040283529160200191610d19565b820191906000526020600020905b815481529060010190602001808311610cfc57829003601f168201915b5050505050848381518110610d2a57fe5b6020026020010181905250806003018054600181600116156101000203166002900480601f016020809104026020016040519081016040528092919081815260200182805460018160011615610100020316600290048015610dcd5780601f10610da257610100808354040283529160200191610dcd565b820191906000526020600020905b815481529060010190602001808311610db057829003601f168201915b5050505050838381518110610dde57fe5b6020026020010181905250508080600101915050610b90565b508383838397509750975097505050505090919293565b828054600181600116156101000203166002900490600052602060002090601f016020900481019282601f10610e4f57805160ff1916838001178555610e7d565b82800160010185558215610e7d579182015b82811115610e7c578251825591602001919060010190610e61565b5b509050610e8a9190610e8e565b5090565b610eb091905b80821115610eac576000816000905550600101610e94565b5090565b90565b600082601f830112610ec457600080fd5b8135610ed7610ed282611315565b6112e8565b91508082526020830160208301858383011115610ef357600080fd5b610efe8382846113f5565b50505092915050565b600081359050610f1681611448565b92915050565b600060208284031215610f2e57600080fd5b6000610f3c84828501610f07565b91505092915050565b60008060008060808587031215610f5b57600080fd5b6000610f6987828801610f07565b945050602085013567ffffffffffffffff811115610f8657600080fd5b610f9287828801610eb3565b935050604085013567ffffffffffffffff811115610faf57600080fd5b610fbb87828801610eb3565b925050606085013567ffffffffffffffff811115610fd857600080fd5b610fe487828801610eb3565b91505092959194509250565b6000610ffc8383611128565b905092915050565b6000611010838361119a565b60208301905092915050565b600061102782611361565b61103181856113a7565b93508360208202850161104385611341565b8060005b8581101561107f57848403895281516110608582610ff0565b945061106b8361138d565b925060208a01995050600181019050611047565b50829750879550505050505092915050565b600061109c8261136c565b6110a681856113b8565b93506110b183611351565b8060005b838110156110e25781516110c98882611004565b97506110d48361139a565b9250506001810190506110b5565b5085935050505092915050565b60006110fa82611382565b61110481856113da565b9350611114818560208601611404565b61111d81611437565b840191505092915050565b600061113382611377565b61113d81856113c9565b935061114d818560208601611404565b61115681611437565b840191505092915050565b600061116c82611377565b61117681856113da565b9350611186818560208601611404565b61118f81611437565b840191505092915050565b6111a3816113eb565b82525050565b6111b2816113eb565b82525050565b600060808201905081810360008301526111d28187611091565b905081810360208301526111e6818661101c565b905081810360408301526111fa818561101c565b9050818103606083015261120e818461101c565b905095945050505050565b600060208201905061122e60008301846111a9565b92915050565b600060808201905061124960008301876111a9565b818103602083015261125b81866110ef565b9050818103604083015261126f81856110ef565b9050818103606083015261128381846110ef565b905095945050505050565b60006080820190506112a360008301876111a9565b81810360208301526112b58186611161565b905081810360408301526112c98185611161565b905081810360608301526112dd8184611161565b905095945050505050565b6000604051905081810181811067ffffffffffffffff8211171561130b57600080fd5b8060405250919050565b600067ffffffffffffffff82111561132c57600080fd5b601f19601f8301169050602081019050919050565b6000819050602082019050919050565b6000819050602082019050919050565b600081519050919050565b600081519050919050565b600081519050919050565b600081519050919050565b6000602082019050919050565b6000602082019050919050565b600082825260208201905092915050565b600082825260208201905092915050565b600082825260208201905092915050565b600082825260208201905092915050565b6000819050919050565b82818337600083830152505050565b60005b83811015611422578082015181840152602081019050611407565b83811115611431576000848401525b50505050565b6000601f19601f8301169050919050565b611451816113eb565b811461145c57600080fd5b5056fea365627a7a7231582083279c5de90d2b4b2d3abeab7ee24944eea5323814da88677cbc4bd17128d8d96c6578706572696d656e74616cf564736f6c634300050d0040",
  "source": "pragma solidity ^0.5.12;\npragma experimental ABIEncoderV2;\n\ncontract MedRec {\n\t/* create data structure for adding a record */\n\tstruct Record {\n\t\tuint mrn;\n\t\tstring diagnosis;\n\t\tstring medication;\n\t\tstring visitDate;\n\t}\n\tmapping(uint => Record) public patientRecords;\n\tuint public recIndex;\n\t\n\t/* Constructor: This is called only once during blockchain deployment\n\tto create a new medical record \n\t*/\n\tconstructor() public {\n\t\trecIndex = 0;\n\t}\n\t\n\t/* adding a new record */\n\tfunction addRecord(\n\t\tuint inputMRN, \n\t\tstring memory inputDiagnosis,\n\t\tstring memory inputMedication,\n\t\tstring memory inputVisitDate\n\t)\n\tpublic \n\t{\n\t\tpatientRecords[recIndex].mrn = inputMRN;\n\t\tpatientRecords[recIndex].diagnosis = inputDiagnosis;\n\t\tpatientRecords[recIndex].medication = inputMedication;\n\t\tpatientRecords[recIndex].visitDate = inputVisitDate;\n\t\trecIndex = recIndex+1;\n\t}\n\t\n\t/* Number of records */\n\tfunction getNumRecords() public view returns(uint) {\n\t\treturn recIndex;\n\t}\n\t\n\t/* get patient records using patient MRN */\n\tfunction getPatientRecord(uint inputMRN) \n\tpublic\n\tview\n\treturns \n\t(\n\t\tuint mrn,\n\t\tstring memory diag, \n\t\tstring memory medi, \n\t\tstring memory visit\n\t)\n\t{\n\tfor(uint i=0; i<recIndex; i++) {\n\t\t\tif(inputMRN==patientRecords[i].mrn) {\n\t\t\t\treturn \n\t\t\t\t(\n\t\t\t\t\tpatientRecords[i].mrn,\n\t\t\t\t\tpatientRecords[i].diagnosis, \n\t\t\t\t\tpatientRecords[i].medication,\n\t\t\t\t\tpatientRecords[i].visitDate\n\t\t\t\t);\n\t\t\t}\n\t\t}\n\t}\n\n\t/* get patient records using patient MRN */\n\tfunction getPatientRecords(uint inputMRN) public view\n\treturns \n\t(\n\t\t\tuint[] memory,\n\t\t\tstring[] memory, \n\t\t\tstring[] memory, \n\t\t\tstring[] memory\n\t)\n\t{\n\t/* Find no. of records for the input MRN */\n\tuint numRec=0;\n\tfor(uint i=0; i<recIndex; i++) {\n\t\tif(inputMRN==patientRecords[i].mrn)\n\t\t\tnumRec++;\n\t}\n\t\n\t/* Temp */\n\tuint[] memory mrns = new uint[](numRec);\n\tstring[] memory diag = new string[](numRec);\n\tstring[] memory medi = new string[](numRec);\n\tstring[] memory visits = new string[](numRec);\n\t\n\tuint counter=0;\n\tfor(uint i=0; i<recIndex; i++) {\n\t\tRecord storage rec = patientRecords[i];\n\t\tif(inputMRN==rec.mrn) {\n\t\t\tmrns[counter]=rec.mrn;\n\t\t\tdiag[counter]=rec.diagnosis;\n\t\t\tmedi[counter]=rec.medication;\n\t\t\tvisits[counter]=rec.visitDate;\n\t\t\tcounter++;\n\t\t}\n\t}\n\treturn (mrns, diag, medi, visits);\n\t}\n\n\t/* get all patient records using patient */\n\tfunction getAllPatientRecords() public view\n\treturns \n\t(\n\t\tuint[] memory,\n\t\tstring[] memory, \n\t\tstring[] memory, \n\t\tstring[] memory\n\t)\n\t{\n\t\t/* Temp */\n\t\tuint[] memory mrns = new uint[](recIndex);\n\t\tstring[] memory diag = new string[](recIndex);\n\t\tstring[] memory medi = new string[](recIndex);\n\t\tstring[] memory visits = new string[](recIndex);\n\t\n\t\tfor(uint i=0; i<recIndex; i++) {\n\t\t\tRecord storage rec = patientRecords[i];\n\t\t\tmrns[i]=rec.mrn;\n\t\t\tdiag[i]=rec.diagnosis;\n\t\t\tmedi[i]=rec.medication;\n\t\t\tvisits[i]=rec.visitDate;\n\t\t}\n\t\treturn (mrns, diag, medi, visits);\n\t}\n}\n",
  "sourcePath": "/home/bhargavi/harshada/project/truffle/contracts/MedRec.sol",
  "compiler": {
    "name": "solc",
    "version": "0.5.13+commit.5b0b510c.Emscripten.clang"
  },
  "schemaVersion": "3.0.16",
  "updatedAt": "2019-12-06T17:39:02.016Z",
  "devdoc": {
    "methods": {}
  },
  "userdoc": {
    "methods": {}
  }
}